{
    "contractName": "CrowdfundingPlatform",
    "abi": [
        {
            "inputs": [
                {
                    "internalType": "address",
                    "name": "target",
                    "type": "address"
                }
            ],
            "name": "AddressEmptyCode",
            "type": "error"
        },
        {
            "inputs": [
                {
                    "internalType": "address",
                    "name": "implementation",
                    "type": "address"
                }
            ],
            "name": "ERC1967InvalidImplementation",
            "type": "error"
        },
        {
            "inputs": [],
            "name": "ERC1967NonPayable",
            "type": "error"
        },
        {
            "inputs": [],
            "name": "FailedInnerCall",
            "type": "error"
        },
        {
            "inputs": [],
            "name": "InvalidInitialization",
            "type": "error"
        },
        {
            "inputs": [],
            "name": "NotInitializing",
            "type": "error"
        },
        {
            "inputs": [
                {
                    "internalType": "address",
                    "name": "owner",
                    "type": "address"
                }
            ],
            "name": "OwnableInvalidOwner",
            "type": "error"
        },
        {
            "inputs": [
                {
                    "internalType": "address",
                    "name": "account",
                    "type": "address"
                }
            ],
            "name": "OwnableUnauthorizedAccount",
            "type": "error"
        },
        {
            "inputs": [],
            "name": "UUPSUnauthorizedCallContext",
            "type": "error"
        },
        {
            "inputs": [
                {
                    "internalType": "bytes32",
                    "name": "slot",
                    "type": "bytes32"
                }
            ],
            "name": "UUPSUnsupportedProxiableUUID",
            "type": "error"
        },
        {
            "anonymous": false,
            "inputs": [
                {
                    "indexed": true,
                    "internalType": "uint256",
                    "name": "projectId",
                    "type": "uint256"
                },
                {
                    "indexed": true,
                    "internalType": "address",
                    "name": "contributor",
                    "type": "address"
                },
                {
                    "indexed": false,
                    "internalType": "uint256",
                    "name": "amount",
                    "type": "uint256"
                }
            ],
            "name": "ContributionMade",
            "type": "event"
        },
        {
            "anonymous": false,
            "inputs": [
                {
                    "indexed": true,
                    "internalType": "uint256",
                    "name": "projectId",
                    "type": "uint256"
                },
                {
                    "indexed": true,
                    "internalType": "address",
                    "name": "contributor",
                    "type": "address"
                },
                {
                    "indexed": false,
                    "internalType": "uint256",
                    "name": "amount",
                    "type": "uint256"
                }
            ],
            "name": "FundsRefunded",
            "type": "event"
        },
        {
            "anonymous": false,
            "inputs": [
                {
                    "indexed": true,
                    "internalType": "uint256",
                    "name": "projectId",
                    "type": "uint256"
                },
                {
                    "indexed": true,
                    "internalType": "address",
                    "name": "creator",
                    "type": "address"
                },
                {
                    "indexed": false,
                    "internalType": "uint256",
                    "name": "amount",
                    "type": "uint256"
                }
            ],
            "name": "FundsWithdrawn",
            "type": "event"
        },
        {
            "anonymous": false,
            "inputs": [
                {
                    "indexed": false,
                    "internalType": "uint64",
                    "name": "version",
                    "type": "uint64"
                }
            ],
            "name": "Initialized",
            "type": "event"
        },
        {
            "anonymous": false,
            "inputs": [
                {
                    "indexed": true,
                    "internalType": "address",
                    "name": "previousOwner",
                    "type": "address"
                },
                {
                    "indexed": true,
                    "internalType": "address",
                    "name": "newOwner",
                    "type": "address"
                }
            ],
            "name": "OwnershipTransferred",
            "type": "event"
        },
        {
            "anonymous": false,
            "inputs": [
                {
                    "indexed": true,
                    "internalType": "uint256",
                    "name": "projectId",
                    "type": "uint256"
                },
                {
                    "indexed": true,
                    "internalType": "address",
                    "name": "creator",
                    "type": "address"
                },
                {
                    "indexed": false,
                    "internalType": "string",
                    "name": "description",
                    "type": "string"
                },
                {
                    "indexed": false,
                    "internalType": "uint256",
                    "name": "goalAmount",
                    "type": "uint256"
                },
                {
                    "indexed": false,
                    "internalType": "uint256",
                    "name": "deadline",
                    "type": "uint256"
                }
            ],
            "name": "ProjectCreated",
            "type": "event"
        },
        {
            "anonymous": false,
            "inputs": [
                {
                    "indexed": true,
                    "internalType": "address",
                    "name": "implementation",
                    "type": "address"
                }
            ],
            "name": "Upgraded",
            "type": "event"
        },
        {
            "inputs": [],
            "name": "UPGRADE_INTERFACE_VERSION",
            "outputs": [
                {
                    "internalType": "string",
                    "name": "",
                    "type": "string"
                }
            ],
            "stateMutability": "view",
            "type": "function"
        },
        {
            "inputs": [
                {
                    "internalType": "uint256",
                    "name": "projectId",
                    "type": "uint256"
                }
            ],
            "name": "contribute",
            "outputs": [],
            "stateMutability": "payable",
            "type": "function"
        },
        {
            "inputs": [
                {
                    "internalType": "string",
                    "name": "description",
                    "type": "string"
                },
                {
                    "internalType": "uint256",
                    "name": "goalAmount",
                    "type": "uint256"
                },
                {
                    "internalType": "uint256",
                    "name": "durationInDays",
                    "type": "uint256"
                }
            ],
            "name": "createProject",
            "outputs": [],
            "stateMutability": "nonpayable",
            "type": "function"
        },
        {
            "inputs": [
                {
                    "internalType": "uint256",
                    "name": "projectId",
                    "type": "uint256"
                }
            ],
            "name": "getProjectStatus",
            "outputs": [
                {
                    "internalType": "string",
                    "name": "",
                    "type": "string"
                }
            ],
            "stateMutability": "view",
            "type": "function"
        },
        {
            "inputs": [],
            "name": "initialize",
            "outputs": [],
            "stateMutability": "nonpayable",
            "type": "function"
        },
        {
            "inputs": [],
            "name": "owner",
            "outputs": [
                {
                    "internalType": "address",
                    "name": "",
                    "type": "address"
                }
            ],
            "stateMutability": "view",
            "type": "function"
        },
        {
            "inputs": [],
            "name": "projectCount",
            "outputs": [
                {
                    "internalType": "uint256",
                    "name": "",
                    "type": "uint256"
                }
            ],
            "stateMutability": "view",
            "type": "function"
        },
        {
            "inputs": [
                {
                    "internalType": "uint256",
                    "name": "",
                    "type": "uint256"
                }
            ],
            "name": "projects",
            "outputs": [
                {
                    "internalType": "address payable",
                    "name": "creator",
                    "type": "address"
                },
                {
                    "internalType": "string",
                    "name": "description",
                    "type": "string"
                },
                {
                    "internalType": "uint256",
                    "name": "goalAmount",
                    "type": "uint256"
                },
                {
                    "internalType": "uint256",
                    "name": "deadline",
                    "type": "uint256"
                },
                {
                    "internalType": "uint256",
                    "name": "currentAmount",
                    "type": "uint256"
                },
                {
                    "internalType": "bool",
                    "name": "withdrawn",
                    "type": "bool"
                }
            ],
            "stateMutability": "view",
            "type": "function"
        },
        {
            "inputs": [],
            "name": "proxiableUUID",
            "outputs": [
                {
                    "internalType": "bytes32",
                    "name": "",
                    "type": "bytes32"
                }
            ],
            "stateMutability": "view",
            "type": "function"
        },
        {
            "inputs": [
                {
                    "internalType": "uint256",
                    "name": "projectId",
                    "type": "uint256"
                }
            ],
            "name": "refund",
            "outputs": [],
            "stateMutability": "nonpayable",
            "type": "function"
        },
        {
            "inputs": [],
            "name": "renounceOwnership",
            "outputs": [],
            "stateMutability": "nonpayable",
            "type": "function"
        },
        {
            "inputs": [
                {
                    "internalType": "address",
                    "name": "newOwner",
                    "type": "address"
                }
            ],
            "name": "transferOwnership",
            "outputs": [],
            "stateMutability": "nonpayable",
            "type": "function"
        },
        {
            "inputs": [
                {
                    "internalType": "address",
                    "name": "newImplementation",
                    "type": "address"
                },
                {
                    "internalType": "bytes",
                    "name": "data",
                    "type": "bytes"
                }
            ],
            "name": "upgradeToAndCall",
            "outputs": [],
            "stateMutability": "payable",
            "type": "function"
        },
        {
            "inputs": [
                {
                    "internalType": "uint256",
                    "name": "projectId",
                    "type": "uint256"
                }
            ],
            "name": "withdrawFunds",
            "outputs": [],
            "stateMutability": "nonpayable",
            "type": "function"
        }
    ],
    "bytecode": "60a060405230608052348015610013575f80fd5b5060805161162061003a5f395f8181610cc101528181610cea0152610e2e01526116205ff3fe6080604052600436106100d9575f3560e01c80638129fc1c1161007c578063ad3cb1cc11610057578063ad3cb1cc1461023b578063c1cbbca71461026b578063f2fde38b1461027e578063f3a6ac5f1461029d575f80fd5b80638129fc1c146101b55780638da5cb5b146101c95780639675c0091461020f575f80fd5b806336fbad26116100b757806336fbad26146101575780634f1ef2861461017a57806352d1902d1461018d578063715018a6146101a1575f80fd5b8063107046bd146100dd578063155dd5ee14610117578063278ecde114610138575b5f80fd5b3480156100e8575f80fd5b506100fc6100f736600461116c565b6102bc565b60405161010e969594939291906111d0565b60405180910390f35b348015610122575f80fd5b5061013661013136600461116c565b610384565b005b348015610143575f80fd5b5061013661015236600461116c565b6105c2565b348015610162575f80fd5b5061016c60015481565b60405190815260200161010e565b610136610188366004611249565b610783565b348015610198575f80fd5b5061016c6107a2565b3480156101ac575f80fd5b506101366107bd565b3480156101c0575f80fd5b506101366107d0565b3480156101d4575f80fd5b507f9016d09d72d40fdae2fd8ceac6b6234c7706214fd39c1cd1e609a0528c199300546040516001600160a01b03909116815260200161010e565b34801561021a575f80fd5b5061022e61022936600461116c565b6108dd565b60405161010e9190611305565b348015610246575f80fd5b5061022e604051806040016040528060058152602001640352e302e360dc1b81525081565b61013661027936600461116c565b6109a8565b348015610289575f80fd5b50610136610298366004611317565b610afb565b3480156102a8575f80fd5b506101366102b7366004611330565b610b38565b5f60208190529081526040902080546001820180546001600160a01b0390921692916102e7906113a8565b80601f0160208091040260200160405190810160405280929190818152602001828054610313906113a8565b801561035e5780601f106103355761010080835404028352916020019161035e565b820191905f5260205f20905b81548152906001019060200180831161034157829003601f168201915b505050506002830154600384015460048501546005909501549394919390925060ff1686565b5f8111801561039557506001548111155b6103ba5760405162461bcd60e51b81526004016103b1906113da565b60405180910390fd5b5f81815260208190526040902080546001600160a01b031633146104305760405162461bcd60e51b815260206004820152602760248201527f4f6e6c792070726f6a6563742063726561746f722063616e2077697468647261604482015266772066756e647360c81b60648201526084016103b1565b806003015442101561047f5760405162461bcd60e51b815260206004820152601860248201527750726f6a656374206973207374696c6c206f6e676f696e6760401b60448201526064016103b1565b8060020154816004015410156104d75760405162461bcd60e51b815260206004820152601e60248201527f50726f6a65637420646964206e6f742072656163682074686520676f616c000060448201526064016103b1565b600581015460ff161561052c5760405162461bcd60e51b815260206004820152601760248201527f46756e647320616c72656164792077697468647261776e00000000000000000060448201526064016103b1565b60058101805460ff19166001179055805460048201546040516001600160a01b039092169181156108fc0291905f818181858888f19350505050158015610575573d5f803e3d5ffd5b50336001600160a01b0316827ff440aec6b52895984d061d622e6edeba6210f7c3e059be920663140c084560d783600401546040516105b691815260200190565b60405180910390a35050565b5f811180156105d357506001548111155b6105ef5760405162461bcd60e51b81526004016103b1906113da565b5f818152602081905260409020600381015442101561064b5760405162461bcd60e51b815260206004820152601860248201527750726f6a656374206973207374696c6c206f6e676f696e6760401b60448201526064016103b1565b80600201548160040154106106a25760405162461bcd60e51b815260206004820152601860248201527f50726f6a65637420726561636865642074686520676f616c000000000000000060448201526064016103b1565b335f9081526006820160205260409020548061070c5760405162461bcd60e51b8152602060048201526024808201527f4e6f20636f6e747269627574696f6e7320666f756e6420666f722074686973206044820152633ab9b2b960e11b60648201526084016103b1565b335f8181526006840160205260408082208290555183156108fc0291849190818181858888f19350505050158015610746573d5f803e3d5ffd5b50604051818152339084907f80b577b4fc190ab86d963549e29f496afd079c5d81a2480d61217d4b5060a28c9060200160405180910390a3505050565b61078b610cb6565b61079482610d5a565b61079e8282610d62565b5050565b5f6107ab610e23565b505f805160206115cb83398151915290565b6107c5610e6c565b6107ce5f610ec7565b565b7ff0c57e16840df040f15088dc2f81fe391c3923bec73e23a9662efc9c229c6a008054600160401b810460ff16159067ffffffffffffffff165f811580156108155750825b90505f8267ffffffffffffffff1660011480156108315750303b155b90508115801561083f575080155b1561085d5760405163f92ee8a960e01b815260040160405180910390fd5b845467ffffffffffffffff19166001178555831561088757845460ff60401b1916600160401b1785555b61089033610f37565b83156108d657845460ff60401b19168555604051600181527fc7f505b2f371ae2175ee4913f4499e1f2633a7b5936321eed1cdaeb6115181d29060200160405180910390a15b5050505050565b60605f821180156108f057506001548211155b61090c5760405162461bcd60e51b81526004016103b1906113da565b5f8281526020819052604090206003810154421061097d5780600201548160040154106109585750506040805180820190915260078152665375636365737360c81b6020820152919050565b50506040805180820190915260078152664661696c75726560c81b6020820152919050565b50506040805180820190915260078152664f6e676f696e6760c81b6020820152919050565b50919050565b5f811180156109b957506001548111155b6109d55760405162461bcd60e51b81526004016103b1906113da565b5f81815260208190526040902060038101544210610a2b5760405162461bcd60e51b8152602060048201526013602482015272141c9bda9958dd081a185cc8195e1c1a5c9959606a1b60448201526064016103b1565b5f3411610a885760405162461bcd60e51b815260206004820152602560248201527f436f6e747269627574696f6e2073686f756c6420626520677265617465722074604482015264068616e20360dc1b60648201526084016103b1565b335f90815260068201602052604081208054349290610aa890849061141a565b9250508190555034816004015f828254610ac2919061141a565b9091555050604051348152339083907f0a4a91237423e0a1766a761c7cb029311d8b95d6b1b81db1b949a70c98b4e08e906020016105b6565b610b03610e6c565b6001600160a01b038116610b2c57604051631e4fbdf760e01b81525f60048201526024016103b1565b610b3581610ec7565b50565b5f8211610b935760405162461bcd60e51b8152602060048201526024808201527f476f616c20616d6f756e742073686f756c6420626520677265617465722074686044820152630616e20360e41b60648201526084016103b1565b5f8111610bec5760405162461bcd60e51b815260206004820152602160248201527f4475726174696f6e2073686f756c642062652067726561746572207468616e206044820152600360fc1b60648201526084016103b1565b5f610bfa826201518061142d565b610c04904261141a565b600180549192505f610c1583611444565b9091555050600180545f90815260208190526040902080546001600160a01b03191633178155908101610c498688836114a0565b5060028101849055600381018290555f600482015560058101805460ff191690556001546040513391907f483013d4a1d5e8ba43089bda8f1a92b959e32d6fc582556f800267dd809e589390610ca6908a908a908a90899061155a565b60405180910390a3505050505050565b306001600160a01b037f0000000000000000000000000000000000000000000000000000000000000000161480610d3c57507f00000000000000000000000000000000000000000000000000000000000000006001600160a01b0316610d305f805160206115cb833981519152546001600160a01b031690565b6001600160a01b031614155b156107ce5760405163703e46dd60e11b815260040160405180910390fd5b610b35610e6c565b816001600160a01b03166352d1902d6040518163ffffffff1660e01b8152600401602060405180830381865afa925050508015610dbc575060408051601f3d908101601f19168201909252610db991810190611598565b60015b610de457604051634c9c8ce360e01b81526001600160a01b03831660048201526024016103b1565b5f805160206115cb8339815191528114610e1457604051632a87526960e21b8152600481018290526024016103b1565b610e1e8383610f48565b505050565b306001600160a01b037f000000000000000000000000000000000000000000000000000000000000000016146107ce5760405163703e46dd60e11b815260040160405180910390fd5b33610e9e7f9016d09d72d40fdae2fd8ceac6b6234c7706214fd39c1cd1e609a0528c199300546001600160a01b031690565b6001600160a01b0316146107ce5760405163118cdaa760e01b81523360048201526024016103b1565b7f9016d09d72d40fdae2fd8ceac6b6234c7706214fd39c1cd1e609a0528c19930080546001600160a01b031981166001600160a01b03848116918217845560405192169182907f8be0079c531659141344cd1fd0a4f28419497f9722a3daafe3b4186f6b6457e0905f90a3505050565b610f3f610f9d565b610b3581610fe6565b610f5182610fee565b6040516001600160a01b038316907fbc7cd75a20ee27fd9adebab32041f755214dbc6bffa90cc0225b39da2e5c2d3b905f90a2805115610f9557610e1e8282611051565b61079e6110c5565b7ff0c57e16840df040f15088dc2f81fe391c3923bec73e23a9662efc9c229c6a0054600160401b900460ff166107ce57604051631afcd79f60e31b815260040160405180910390fd5b610b03610f9d565b806001600160a01b03163b5f0361102357604051634c9c8ce360e01b81526001600160a01b03821660048201526024016103b1565b5f805160206115cb83398151915280546001600160a01b0319166001600160a01b0392909216919091179055565b60605f80846001600160a01b03168460405161106d91906115af565b5f60405180830381855af49150503d805f81146110a5576040519150601f19603f3d011682016040523d82523d5f602084013e6110aa565b606091505b50915091506110ba8583836110e4565b925050505b92915050565b34156107ce5760405163b398979f60e01b815260040160405180910390fd5b6060826110f9576110f482611143565b61113c565b815115801561111057506001600160a01b0384163b155b1561113957604051639996b31560e01b81526001600160a01b03851660048201526024016103b1565b50805b9392505050565b8051156111535780518082602001fd5b604051630a12f52160e11b815260040160405180910390fd5b5f6020828403121561117c575f80fd5b5035919050565b5f5b8381101561119d578181015183820152602001611185565b50505f910152565b5f81518084526111bc816020860160208601611183565b601f01601f19169290920160200192915050565b6001600160a01b038716815260c0602082018190525f906111f3908301886111a5565b905085604083015284606083015283608083015282151560a0830152979650505050505050565b80356001600160a01b0381168114611230575f80fd5b919050565b634e487b7160e01b5f52604160045260245ffd5b5f806040838503121561125a575f80fd5b6112638361121a565b9150602083013567ffffffffffffffff8082111561127f575f80fd5b818501915085601f830112611292575f80fd5b8135818111156112a4576112a4611235565b604051601f8201601f19908116603f011681019083821181831017156112cc576112cc611235565b816040528281528860208487010111156112e4575f80fd5b826020860160208301375f6020848301015280955050505050509250929050565b602081525f61113c60208301846111a5565b5f60208284031215611327575f80fd5b61113c8261121a565b5f805f8060608587031215611343575f80fd5b843567ffffffffffffffff8082111561135a575f80fd5b818701915087601f83011261136d575f80fd5b81358181111561137b575f80fd5b88602082850101111561138c575f80fd5b6020928301999098509187013596604001359550909350505050565b600181811c908216806113bc57607f821691505b6020821081036109a257634e487b7160e01b5f52602260045260245ffd5b602080825260129082015271125b9d985b1a59081c1c9bda9958dd08125160721b604082015260600190565b634e487b7160e01b5f52601160045260245ffd5b808201808211156110bf576110bf611406565b80820281158282048414176110bf576110bf611406565b5f6001820161145557611455611406565b5060010190565b601f821115610e1e57805f5260205f20601f840160051c810160208510156114815750805b601f840160051c820191505b818110156108d6575f815560010161148d565b67ffffffffffffffff8311156114b8576114b8611235565b6114cc836114c683546113a8565b8361145c565b5f601f8411600181146114fd575f85156114e65750838201355b5f19600387901b1c1916600186901b1783556108d6565b5f83815260208120601f198716915b8281101561152c578685013582556020948501946001909201910161150c565b5086821015611548575f1960f88860031b161c19848701351681555b505060018560011b0183555050505050565b60608152836060820152838560808301375f608085830101525f6080601f19601f870116830101905083602083015282604083015295945050505050565b5f602082840312156115a8575f80fd5b5051919050565b5f82516115c0818460208701611183565b919091019291505056fe360894a13ba1a3210667c828492db98dca3e2076cc3735a920a3ca505d382bbca2646970667358221220ffe9cb499d923d5fc3da17a9308de3a76439473af94606b9f1922caabc29cc6d64736f6c63430008180033",
    "sourcePath": "d:/web3/sample-integrate/contracts/CrowdfundingPlatform.sol",
    "compiler": {
        "name": "solc",
        "version": "0.8.24+commit.e11b9ed9"
    },
    "functionHashes": {
        "UPGRADE_INTERFACE_VERSION()": "ad3cb1cc",
        "contribute(uint256)": "c1cbbca7",
        "createProject(string,uint256,uint256)": "f3a6ac5f",
        "getProjectStatus(uint256)": "9675c009",
        "initialize()": "8129fc1c",
        "owner()": "8da5cb5b",
        "projectCount()": "36fbad26",
        "projects(uint256)": "107046bd",
        "proxiableUUID()": "52d1902d",
        "refund(uint256)": "278ecde1",
        "renounceOwnership()": "715018a6",
        "transferOwnership(address)": "f2fde38b",
        "upgradeToAndCall(address,bytes)": "4f1ef286",
        "withdrawFunds(uint256)": "155dd5ee"
    },
    "gasEstimates": {
        "creation": {
            "codeDepositCost": "1132800",
            "executionCost": "infinite",
            "totalCost": "infinite"
        },
        "external": {
            "UPGRADE_INTERFACE_VERSION()": "infinite",
            "contribute(uint256)": "infinite",
            "createProject(string,uint256,uint256)": "infinite",
            "getProjectStatus(uint256)": "infinite",
            "initialize()": "infinite",
            "owner()": "2345",
            "projectCount()": "2317",
            "projects(uint256)": "infinite",
            "proxiableUUID()": "infinite",
            "refund(uint256)": "infinite",
            "renounceOwnership()": "infinite",
            "transferOwnership(address)": "28431",
            "upgradeToAndCall(address,bytes)": "infinite",
            "withdrawFunds(uint256)": "infinite"
        },
        "internal": {
            "_authorizeUpgrade(address)": "infinite"
        }
    }
}