{
    "contractName": "Erc20Token",
    "abi": [
        {
            "inputs": [],
            "stateMutability": "nonpayable",
            "type": "constructor"
        },
        {
            "anonymous": false,
            "inputs": [
                {
                    "indexed": true,
                    "internalType": "address",
                    "name": "_owner",
                    "type": "address"
                },
                {
                    "indexed": true,
                    "internalType": "address",
                    "name": "_spender",
                    "type": "address"
                },
                {
                    "indexed": false,
                    "internalType": "uint256",
                    "name": "_value",
                    "type": "uint256"
                }
            ],
            "name": "Approval",
            "type": "event"
        },
        {
            "anonymous": false,
            "inputs": [
                {
                    "indexed": true,
                    "internalType": "address",
                    "name": "_from",
                    "type": "address"
                },
                {
                    "indexed": true,
                    "internalType": "address",
                    "name": "_to",
                    "type": "address"
                },
                {
                    "indexed": false,
                    "internalType": "uint256",
                    "name": "_value",
                    "type": "uint256"
                }
            ],
            "name": "Transfer",
            "type": "event"
        },
        {
            "inputs": [
                {
                    "internalType": "address",
                    "name": "_owner",
                    "type": "address"
                },
                {
                    "internalType": "address",
                    "name": "_spender",
                    "type": "address"
                }
            ],
            "name": "Allowance",
            "outputs": [
                {
                    "internalType": "uint256",
                    "name": "remaining",
                    "type": "uint256"
                }
            ],
            "stateMutability": "view",
            "type": "function"
        },
        {
            "inputs": [
                {
                    "internalType": "address",
                    "name": "_spender",
                    "type": "address"
                },
                {
                    "internalType": "uint256",
                    "name": "_value",
                    "type": "uint256"
                }
            ],
            "name": "Approve",
            "outputs": [
                {
                    "internalType": "bool",
                    "name": "success",
                    "type": "bool"
                }
            ],
            "stateMutability": "nonpayable",
            "type": "function"
        },
        {
            "inputs": [
                {
                    "internalType": "address",
                    "name": "_owner",
                    "type": "address"
                }
            ],
            "name": "balanceOf",
            "outputs": [
                {
                    "internalType": "uint256",
                    "name": "balance",
                    "type": "uint256"
                }
            ],
            "stateMutability": "view",
            "type": "function"
        },
        {
            "inputs": [
                {
                    "internalType": "address",
                    "name": "_spender",
                    "type": "address"
                },
                {
                    "internalType": "uint256",
                    "name": "_subtractedValue",
                    "type": "uint256"
                }
            ],
            "name": "burn",
            "outputs": [],
            "stateMutability": "nonpayable",
            "type": "function"
        },
        {
            "inputs": [],
            "name": "getDecimals",
            "outputs": [
                {
                    "internalType": "uint8",
                    "name": "",
                    "type": "uint8"
                }
            ],
            "stateMutability": "pure",
            "type": "function"
        },
        {
            "inputs": [],
            "name": "getName",
            "outputs": [
                {
                    "internalType": "string",
                    "name": "",
                    "type": "string"
                }
            ],
            "stateMutability": "view",
            "type": "function"
        },
        {
            "inputs": [],
            "name": "getSymbol",
            "outputs": [
                {
                    "internalType": "string",
                    "name": "",
                    "type": "string"
                }
            ],
            "stateMutability": "view",
            "type": "function"
        },
        {
            "inputs": [],
            "name": "getTotalSupply",
            "outputs": [
                {
                    "internalType": "uint256",
                    "name": "",
                    "type": "uint256"
                }
            ],
            "stateMutability": "view",
            "type": "function"
        },
        {
            "inputs": [
                {
                    "internalType": "address",
                    "name": "_spender",
                    "type": "address"
                },
                {
                    "internalType": "uint256",
                    "name": "_addedValue",
                    "type": "uint256"
                }
            ],
            "name": "mint",
            "outputs": [],
            "stateMutability": "nonpayable",
            "type": "function"
        },
        {
            "inputs": [
                {
                    "internalType": "address",
                    "name": "_to",
                    "type": "address"
                },
                {
                    "internalType": "uint256",
                    "name": "_value",
                    "type": "uint256"
                }
            ],
            "name": "transfer",
            "outputs": [
                {
                    "internalType": "bool",
                    "name": "success",
                    "type": "bool"
                }
            ],
            "stateMutability": "nonpayable",
            "type": "function"
        },
        {
            "inputs": [
                {
                    "internalType": "address",
                    "name": "_from",
                    "type": "address"
                },
                {
                    "internalType": "address",
                    "name": "_to",
                    "type": "address"
                },
                {
                    "internalType": "uint256",
                    "name": "_value",
                    "type": "uint256"
                }
            ],
            "name": "transferFrom",
            "outputs": [
                {
                    "internalType": "bool",
                    "name": "success",
                    "type": "bool"
                }
            ],
            "stateMutability": "nonpayable",
            "type": "function"
        }
    ],
    "bytecode": "608060405234801561000f575f80fd5b5060408051808201909152600a81526922b93199182a37b5b2b760b11b60208201525f9061003d9082610115565b5060408051808201909152600381526245524360e81b60208201526001906100659082610115565b50600380546001600160a01b031916331790556101d4565b634e487b7160e01b5f52604160045260245ffd5b600181811c908216806100a557607f821691505b6020821081036100c357634e487b7160e01b5f52602260045260245ffd5b50919050565b601f82111561011057805f5260205f20601f840160051c810160208510156100ee5750805b601f840160051c820191505b8181101561010d575f81556001016100fa565b50505b505050565b81516001600160401b0381111561012e5761012e61007d565b6101428161013c8454610091565b846100c9565b602080601f831160018114610175575f841561015e5750858301515b5f19600386901b1c1916600185901b1785556101cc565b5f85815260208120601f198616915b828110156101a357888601518255948401946001909101908401610184565b50858210156101c057878501515f19600388901b60f8161c191681555b505060018460011b0185555b505050505050565b61088d806101e15f395ff3fe608060405234801561000f575f80fd5b50600436106100a6575f3560e01c806370a082311161006e57806370a082311461012957806390ec57f1146101515780639dc29fac14610164578063a9059cbb14610177578063c4e41b221461018a578063f0141d8414610192575f80fd5b806315070401146100aa57806317d7de7c146100c857806323b872dd146100d057806340c10f19146100f35780636dcdd00f14610108575b5f80fd5b6100b26101a1565b6040516100bf91906106cc565b60405180910390f35b6100b2610231565b6100e36100de366004610733565b61023f565b60405190151581526020016100bf565b61010661010136600461076c565b6103cb565b005b61011b610116366004610794565b610465565b6040519081526020016100bf565b61011b6101373660046107c5565b6001600160a01b03165f9081526004602052604090205490565b6100e361015f36600461076c565b610491565b61010661017236600461076c565b6104fc565b6100e361018536600461076c565b6105eb565b60025461011b565b604051601281526020016100bf565b6060600180546101b0906107e5565b80601f01602080910402602001604051908101604052809291908181526020018280546101dc906107e5565b80156102275780601f106101fe57610100808354040283529160200191610227565b820191905f5260205f20905b81548152906001019060200180831161020a57829003601f168201915b5050505050905090565b60605f80546101b0906107e5565b6001600160a01b0383165f8181526005602090815260408083203384528252808320549383526004909152812054909190831180159061027f5750828110155b6102da5760405162461bcd60e51b815260206004820152602160248201527f496e73756666696369656e742062616c616e6365206f7220616c6c6f77616e636044820152606560f81b60648201526084015b60405180910390fd5b6001600160a01b0384165f9081526004602052604081208054859290610301908490610831565b90915550506001600160a01b0385165f908152600460205260408120805485929061032d908490610844565b90915550505f19811015610373576001600160a01b0385165f9081526005602090815260408083203384529091528120805485929061036d908490610844565b90915550505b836001600160a01b0316856001600160a01b03167fddf252ad1be2c89b69c2b068fc378daa952ba7f163c4a11628f55a4df523b3ef856040516103b891815260200190565b60405180910390a3506001949350505050565b6003546001600160a01b0316331461041d5760405162461bcd60e51b81526020600482015260156024820152742cb7ba9030b932903737ba103a34329037bbb732b960591b60448201526064016102d1565b6001600160a01b0382165f9081526004602052604081208054839290610444908490610831565b925050819055508060025f82825461045c9190610831565b90915550505050565b6001600160a01b038083165f908152600560209081526040808320938516835292905220545b92915050565b335f8181526005602090815260408083206001600160a01b038716808552925280832085905551919290917f8c5be1e5ebec7d5bd14f71427d1e84f3dd0314c0f7b2291e5b200ac8c7c3b925906104eb9086815260200190565b60405180910390a350600192915050565b6003546001600160a01b0316331461054e5760405162461bcd60e51b81526020600482015260156024820152742cb7ba9030b932903737ba103a34329037bbb732b960591b60448201526064016102d1565b6001600160a01b0382165f908152600460205260409020548111156105ac5760405162461bcd60e51b8152602060048201526014602482015273496e73756666696369656e742062616c616e636560601b60448201526064016102d1565b6001600160a01b0382165f90815260046020526040812080548392906105d3908490610844565b925050819055508060025f82825461045c9190610844565b335f908152600460205260408120548211156106405760405162461bcd60e51b8152602060048201526014602482015273496e73756666696369656e742062616c616e636560601b60448201526064016102d1565b335f908152600460205260408120805484929061065e908490610844565b90915550506001600160a01b0383165f908152600460205260408120805484929061068a908490610831565b90915550506040518281526001600160a01b0384169033907fddf252ad1be2c89b69c2b068fc378daa952ba7f163c4a11628f55a4df523b3ef906020016104eb565b5f602080835283518060208501525f5b818110156106f8578581018301518582016040015282016106dc565b505f604082860101526040601f19601f8301168501019250505092915050565b80356001600160a01b038116811461072e575f80fd5b919050565b5f805f60608486031215610745575f80fd5b61074e84610718565b925061075c60208501610718565b9150604084013590509250925092565b5f806040838503121561077d575f80fd5b61078683610718565b946020939093013593505050565b5f80604083850312156107a5575f80fd5b6107ae83610718565b91506107bc60208401610718565b90509250929050565b5f602082840312156107d5575f80fd5b6107de82610718565b9392505050565b600181811c908216806107f957607f821691505b60208210810361081757634e487b7160e01b5f52602260045260245ffd5b50919050565b634e487b7160e01b5f52601160045260245ffd5b8082018082111561048b5761048b61081d565b8181038181111561048b5761048b61081d56fea26469706673582212208381a23a14d4f8405db794e24fd3bc0dd1eb08c88f255541f5de386c46e3962c64736f6c63430008180033",
    "sourcePath": "d:/web3/sample-integrate/contracts/Erc20Token.sol",
    "compiler": {
        "name": "solc",
        "version": "0.8.24+commit.e11b9ed9"
    },
    "functionHashes": {
        "Allowance(address,address)": "6dcdd00f",
        "Approve(address,uint256)": "90ec57f1",
        "balanceOf(address)": "70a08231",
        "burn(address,uint256)": "9dc29fac",
        "getDecimals()": "f0141d84",
        "getName()": "17d7de7c",
        "getSymbol()": "15070401",
        "getTotalSupply()": "c4e41b22",
        "mint(address,uint256)": "40c10f19",
        "transfer(address,uint256)": "a9059cbb",
        "transferFrom(address,address,uint256)": "23b872dd"
    },
    "gasEstimates": {
        "creation": {
            "codeDepositCost": "437800",
            "executionCost": "infinite",
            "totalCost": "infinite"
        },
        "external": {
            "Allowance(address,address)": "infinite",
            "Approve(address,uint256)": "24518",
            "balanceOf(address)": "2534",
            "burn(address,uint256)": "infinite",
            "getDecimals()": "286",
            "getName()": "infinite",
            "getSymbol()": "infinite",
            "getTotalSupply()": "2379",
            "mint(address,uint256)": "infinite",
            "transfer(address,uint256)": "infinite",
            "transferFrom(address,address,uint256)": "infinite"
        }
    }
}