{
    "contractName": "IDO",
    "abi": [
        {
            "inputs": [
                {
                    "internalType": "string",
                    "name": "name",
                    "type": "string"
                },
                {
                    "internalType": "string",
                    "name": "symbol",
                    "type": "string"
                },
                {
                    "internalType": "uint256",
                    "name": "_rate",
                    "type": "uint256"
                },
                {
                    "internalType": "uint256",
                    "name": "_startTime",
                    "type": "uint256"
                },
                {
                    "internalType": "uint256",
                    "name": "_endTime",
                    "type": "uint256"
                },
                {
                    "internalType": "address",
                    "name": "_owner",
                    "type": "address"
                }
            ],
            "stateMutability": "nonpayable",
            "type": "constructor"
        },
        {
            "inputs": [
                {
                    "internalType": "address",
                    "name": "spender",
                    "type": "address"
                },
                {
                    "internalType": "uint256",
                    "name": "allowance",
                    "type": "uint256"
                },
                {
                    "internalType": "uint256",
                    "name": "needed",
                    "type": "uint256"
                }
            ],
            "name": "ERC20InsufficientAllowance",
            "type": "error"
        },
        {
            "inputs": [
                {
                    "internalType": "address",
                    "name": "sender",
                    "type": "address"
                },
                {
                    "internalType": "uint256",
                    "name": "balance",
                    "type": "uint256"
                },
                {
                    "internalType": "uint256",
                    "name": "needed",
                    "type": "uint256"
                }
            ],
            "name": "ERC20InsufficientBalance",
            "type": "error"
        },
        {
            "inputs": [
                {
                    "internalType": "address",
                    "name": "approver",
                    "type": "address"
                }
            ],
            "name": "ERC20InvalidApprover",
            "type": "error"
        },
        {
            "inputs": [
                {
                    "internalType": "address",
                    "name": "receiver",
                    "type": "address"
                }
            ],
            "name": "ERC20InvalidReceiver",
            "type": "error"
        },
        {
            "inputs": [
                {
                    "internalType": "address",
                    "name": "sender",
                    "type": "address"
                }
            ],
            "name": "ERC20InvalidSender",
            "type": "error"
        },
        {
            "inputs": [
                {
                    "internalType": "address",
                    "name": "spender",
                    "type": "address"
                }
            ],
            "name": "ERC20InvalidSpender",
            "type": "error"
        },
        {
            "inputs": [
                {
                    "internalType": "address",
                    "name": "owner",
                    "type": "address"
                }
            ],
            "name": "OwnableInvalidOwner",
            "type": "error"
        },
        {
            "inputs": [
                {
                    "internalType": "address",
                    "name": "account",
                    "type": "address"
                }
            ],
            "name": "OwnableUnauthorizedAccount",
            "type": "error"
        },
        {
            "anonymous": false,
            "inputs": [
                {
                    "indexed": true,
                    "internalType": "address",
                    "name": "owner",
                    "type": "address"
                },
                {
                    "indexed": true,
                    "internalType": "address",
                    "name": "spender",
                    "type": "address"
                },
                {
                    "indexed": false,
                    "internalType": "uint256",
                    "name": "value",
                    "type": "uint256"
                }
            ],
            "name": "Approval",
            "type": "event"
        },
        {
            "anonymous": false,
            "inputs": [
                {
                    "indexed": true,
                    "internalType": "address",
                    "name": "previousOwner",
                    "type": "address"
                },
                {
                    "indexed": true,
                    "internalType": "address",
                    "name": "newOwner",
                    "type": "address"
                }
            ],
            "name": "OwnershipTransferred",
            "type": "event"
        },
        {
            "anonymous": false,
            "inputs": [
                {
                    "indexed": true,
                    "internalType": "address",
                    "name": "purchaser",
                    "type": "address"
                },
                {
                    "indexed": false,
                    "internalType": "uint256",
                    "name": "amount",
                    "type": "uint256"
                }
            ],
            "name": "TokensPurchased",
            "type": "event"
        },
        {
            "anonymous": false,
            "inputs": [
                {
                    "indexed": true,
                    "internalType": "address",
                    "name": "from",
                    "type": "address"
                },
                {
                    "indexed": true,
                    "internalType": "address",
                    "name": "to",
                    "type": "address"
                },
                {
                    "indexed": false,
                    "internalType": "uint256",
                    "name": "value",
                    "type": "uint256"
                }
            ],
            "name": "Transfer",
            "type": "event"
        },
        {
            "inputs": [
                {
                    "internalType": "address",
                    "name": "owner",
                    "type": "address"
                },
                {
                    "internalType": "address",
                    "name": "spender",
                    "type": "address"
                }
            ],
            "name": "allowance",
            "outputs": [
                {
                    "internalType": "uint256",
                    "name": "",
                    "type": "uint256"
                }
            ],
            "stateMutability": "view",
            "type": "function"
        },
        {
            "inputs": [
                {
                    "internalType": "address",
                    "name": "spender",
                    "type": "address"
                },
                {
                    "internalType": "uint256",
                    "name": "value",
                    "type": "uint256"
                }
            ],
            "name": "approve",
            "outputs": [
                {
                    "internalType": "bool",
                    "name": "",
                    "type": "bool"
                }
            ],
            "stateMutability": "nonpayable",
            "type": "function"
        },
        {
            "inputs": [
                {
                    "internalType": "address",
                    "name": "account",
                    "type": "address"
                }
            ],
            "name": "balanceOf",
            "outputs": [
                {
                    "internalType": "uint256",
                    "name": "",
                    "type": "uint256"
                }
            ],
            "stateMutability": "view",
            "type": "function"
        },
        {
            "inputs": [],
            "name": "buyTokens",
            "outputs": [],
            "stateMutability": "payable",
            "type": "function"
        },
        {
            "inputs": [],
            "name": "decimals",
            "outputs": [
                {
                    "internalType": "uint8",
                    "name": "",
                    "type": "uint8"
                }
            ],
            "stateMutability": "view",
            "type": "function"
        },
        {
            "inputs": [],
            "name": "endTime",
            "outputs": [
                {
                    "internalType": "uint256",
                    "name": "",
                    "type": "uint256"
                }
            ],
            "stateMutability": "view",
            "type": "function"
        },
        {
            "inputs": [],
            "name": "name",
            "outputs": [
                {
                    "internalType": "string",
                    "name": "",
                    "type": "string"
                }
            ],
            "stateMutability": "view",
            "type": "function"
        },
        {
            "inputs": [],
            "name": "owner",
            "outputs": [
                {
                    "internalType": "address",
                    "name": "",
                    "type": "address"
                }
            ],
            "stateMutability": "view",
            "type": "function"
        },
        {
            "inputs": [],
            "name": "rate",
            "outputs": [
                {
                    "internalType": "uint256",
                    "name": "",
                    "type": "uint256"
                }
            ],
            "stateMutability": "view",
            "type": "function"
        },
        {
            "inputs": [],
            "name": "renounceOwnership",
            "outputs": [],
            "stateMutability": "nonpayable",
            "type": "function"
        },
        {
            "inputs": [],
            "name": "startTime",
            "outputs": [
                {
                    "internalType": "uint256",
                    "name": "",
                    "type": "uint256"
                }
            ],
            "stateMutability": "view",
            "type": "function"
        },
        {
            "inputs": [],
            "name": "symbol",
            "outputs": [
                {
                    "internalType": "string",
                    "name": "",
                    "type": "string"
                }
            ],
            "stateMutability": "view",
            "type": "function"
        },
        {
            "inputs": [],
            "name": "totalSupply",
            "outputs": [
                {
                    "internalType": "uint256",
                    "name": "",
                    "type": "uint256"
                }
            ],
            "stateMutability": "view",
            "type": "function"
        },
        {
            "inputs": [
                {
                    "internalType": "address",
                    "name": "to",
                    "type": "address"
                },
                {
                    "internalType": "uint256",
                    "name": "value",
                    "type": "uint256"
                }
            ],
            "name": "transfer",
            "outputs": [
                {
                    "internalType": "bool",
                    "name": "",
                    "type": "bool"
                }
            ],
            "stateMutability": "nonpayable",
            "type": "function"
        },
        {
            "inputs": [
                {
                    "internalType": "address",
                    "name": "from",
                    "type": "address"
                },
                {
                    "internalType": "address",
                    "name": "to",
                    "type": "address"
                },
                {
                    "internalType": "uint256",
                    "name": "value",
                    "type": "uint256"
                }
            ],
            "name": "transferFrom",
            "outputs": [
                {
                    "internalType": "bool",
                    "name": "",
                    "type": "bool"
                }
            ],
            "stateMutability": "nonpayable",
            "type": "function"
        },
        {
            "inputs": [
                {
                    "internalType": "address",
                    "name": "newOwner",
                    "type": "address"
                }
            ],
            "name": "transferOwnership",
            "outputs": [],
            "stateMutability": "nonpayable",
            "type": "function"
        },
        {
            "inputs": [],
            "name": "withdrawFunds",
            "outputs": [],
            "stateMutability": "nonpayable",
            "type": "function"
        },
        {
            "inputs": [],
            "name": "withdrawUnsoldTokens",
            "outputs": [],
            "stateMutability": "nonpayable",
            "type": "function"
        }
    ],
    "bytecode": "608060405234801562000010575f80fd5b5060405162000ec538038062000ec58339810160408190526200003391620001b8565b8086866003620000448382620002e5565b506004620000538282620002e5565b5050506001600160a01b0381166200008457604051631e4fbdf760e01b81525f600482015260240160405180910390fd5b6200008f81620000a6565b505060069290925560075560085550620003b19050565b600580546001600160a01b038381166001600160a01b0319831681179093556040519116919082907f8be0079c531659141344cd1fd0a4f28419497f9722a3daafe3b4186f6b6457e0905f90a35050565b634e487b7160e01b5f52604160045260245ffd5b5f82601f8301126200011b575f80fd5b81516001600160401b0380821115620001385762000138620000f7565b604051601f8301601f19908116603f01168101908282118183101715620001635762000163620000f7565b816040528381526020925086602085880101111562000180575f80fd5b5f91505b83821015620001a3578582018301518183018401529082019062000184565b5f602085830101528094505050505092915050565b5f805f805f8060c08789031215620001ce575f80fd5b86516001600160401b0380821115620001e5575f80fd5b620001f38a838b016200010b565b9750602089015191508082111562000209575f80fd5b506200021889828a016200010b565b604089015160608a015160808b015160a08c01519399509197509550935090506001600160a01b03811681146200024d575f80fd5b809150509295509295509295565b600181811c908216806200027057607f821691505b6020821081036200028f57634e487b7160e01b5f52602260045260245ffd5b50919050565b601f821115620002e057805f5260205f20601f840160051c81016020851015620002bc5750805b601f840160051c820191505b81811015620002dd575f8155600101620002c8565b50505b505050565b81516001600160401b03811115620003015762000301620000f7565b62000319816200031284546200025b565b8462000295565b602080601f8311600181146200034f575f8415620003375750858301515b5f19600386901b1c1916600185901b178555620003a9565b5f85815260208120601f198616915b828110156200037f578886015182559484019460019091019084016200035e565b50858210156200039d57878501515f19600388901b60f8161c191681555b505060018460011b0185555b505050505050565b610b0680620003bf5f395ff3fe608060405260043610610105575f3560e01c8063715018a611610092578063a9059cbb11610062578063a9059cbb14610292578063c8bdbfb6146102b1578063d0febe4c146102c5578063dd62ed3e146102cd578063f2fde38b14610311575f80fd5b8063715018a61461022e57806378e97925146102425780638da5cb5b1461025757806395d89b411461027e575f80fd5b806324600fc3116100d857806324600fc31461019f5780632c4e722e146101b5578063313ce567146101ca5780633197cbb6146101e557806370a08231146101fa575f80fd5b806306fdde0314610109578063095ea7b31461013357806318160ddd1461016257806323b872dd14610180575b5f80fd5b348015610114575f80fd5b5061011d610330565b60405161012a9190610941565b60405180910390f35b34801561013e575f80fd5b5061015261014d3660046109a8565b6103c0565b604051901515815260200161012a565b34801561016d575f80fd5b506002545b60405190815260200161012a565b34801561018b575f80fd5b5061015261019a3660046109d0565b6103d9565b3480156101aa575f80fd5b506101b36103fc565b005b3480156101c0575f80fd5b5061017260065481565b3480156101d5575f80fd5b506040516012815260200161012a565b3480156101f0575f80fd5b5061017260085481565b348015610205575f80fd5b50610172610214366004610a09565b6001600160a01b03165f9081526020819052604090205490565b348015610239575f80fd5b506101b361043d565b34801561024d575f80fd5b5061017260075481565b348015610262575f80fd5b506005546040516001600160a01b03909116815260200161012a565b348015610289575f80fd5b5061011d610450565b34801561029d575f80fd5b506101526102ac3660046109a8565b61045f565b3480156102bc575f80fd5b506101b361046c565b6101b361049b565b3480156102d8575f80fd5b506101726102e7366004610a29565b6001600160a01b039182165f90815260016020908152604080832093909416825291909152205490565b34801561031c575f80fd5b506101b361032b366004610a09565b6105a7565b60606003805461033f90610a5a565b80601f016020809104026020016040519081016040528092919081815260200182805461036b90610a5a565b80156103b65780601f1061038d576101008083540402835291602001916103b6565b820191905f5260205f20905b81548152906001019060200180831161039957829003601f168201915b5050505050905090565b5f336103cd8185856105e1565b60019150505b92915050565b5f336103e68582856105f3565b6103f185858561066e565b506001949350505050565b6104046106cb565b6005546040516001600160a01b03909116904780156108fc02915f818181858888f1935050505015801561043a573d5f803e3d5ffd5b50565b6104456106cb565b61044e5f6106f8565b565b60606004805461033f90610a5a565b5f336103cd81858561066e565b6104746106cb565b305f81815260208190526040902054600554909161043a916001600160a01b03168361066e565b60075442101580156104af57506008544211155b6104f45760405162461bcd60e51b815260206004820152601160248201527049444f206973206e6f742061637469766560781b60448201526064015b60405180910390fd5b5f600654346105039190610aa6565b305f908152602081905260409020549091508111156105645760405162461bcd60e51b815260206004820152601a60248201527f496e73756666696369656e7420746f6b656e2062616c616e636500000000000060448201526064016104eb565b61056f30338361066e565b60405181815233907f8f28852646c20cc973d3a8218f7eefed58c25c909f78f0265af4818c3d4dc2719060200160405180910390a250565b6105af6106cb565b6001600160a01b0381166105d857604051631e4fbdf760e01b81525f60048201526024016104eb565b61043a816106f8565b6105ee8383836001610749565b505050565b6001600160a01b038381165f908152600160209081526040808320938616835292905220545f198114610668578181101561065a57604051637dc7a0d960e11b81526001600160a01b038416600482015260248101829052604481018390526064016104eb565b61066884848484035f610749565b50505050565b6001600160a01b03831661069757604051634b637e8f60e11b81525f60048201526024016104eb565b6001600160a01b0382166106c05760405163ec442f0560e01b81525f60048201526024016104eb565b6105ee83838361081b565b6005546001600160a01b0316331461044e5760405163118cdaa760e01b81523360048201526024016104eb565b600580546001600160a01b038381166001600160a01b0319831681179093556040519116919082907f8be0079c531659141344cd1fd0a4f28419497f9722a3daafe3b4186f6b6457e0905f90a35050565b6001600160a01b0384166107725760405163e602df0560e01b81525f60048201526024016104eb565b6001600160a01b03831661079b57604051634a1406b160e11b81525f60048201526024016104eb565b6001600160a01b038085165f908152600160209081526040808320938716835292905220829055801561066857826001600160a01b0316846001600160a01b03167f8c5be1e5ebec7d5bd14f71427d1e84f3dd0314c0f7b2291e5b200ac8c7c3b9258460405161080d91815260200190565b60405180910390a350505050565b6001600160a01b038316610845578060025f82825461083a9190610abd565b909155506108b59050565b6001600160a01b0383165f90815260208190526040902054818110156108975760405163391434e360e21b81526001600160a01b038516600482015260248101829052604481018390526064016104eb565b6001600160a01b0384165f9081526020819052604090209082900390555b6001600160a01b0382166108d1576002805482900390556108ef565b6001600160a01b0382165f9081526020819052604090208054820190555b816001600160a01b0316836001600160a01b03167fddf252ad1be2c89b69c2b068fc378daa952ba7f163c4a11628f55a4df523b3ef8360405161093491815260200190565b60405180910390a3505050565b5f602080835283518060208501525f5b8181101561096d57858101830151858201604001528201610951565b505f604082860101526040601f19601f8301168501019250505092915050565b80356001600160a01b03811681146109a3575f80fd5b919050565b5f80604083850312156109b9575f80fd5b6109c28361098d565b946020939093013593505050565b5f805f606084860312156109e2575f80fd5b6109eb8461098d565b92506109f96020850161098d565b9150604084013590509250925092565b5f60208284031215610a19575f80fd5b610a228261098d565b9392505050565b5f8060408385031215610a3a575f80fd5b610a438361098d565b9150610a516020840161098d565b90509250929050565b600181811c90821680610a6e57607f821691505b602082108103610a8c57634e487b7160e01b5f52602260045260245ffd5b50919050565b634e487b7160e01b5f52601160045260245ffd5b80820281158282048414176103d3576103d3610a92565b808201808211156103d3576103d3610a9256fea26469706673582212205ca54a88fdaedf6027a51b3a5db336f367eb9912fc7a57501cbfc280e3a2d88164736f6c63430008180033",
    "sourcePath": "d:/web3/sample-integrate/contracts/IDO.sol",
    "compiler": {
        "name": "solc",
        "version": "0.8.24+commit.e11b9ed9"
    },
    "functionHashes": {
        "allowance(address,address)": "dd62ed3e",
        "approve(address,uint256)": "095ea7b3",
        "balanceOf(address)": "70a08231",
        "buyTokens()": "d0febe4c",
        "decimals()": "313ce567",
        "endTime()": "3197cbb6",
        "name()": "06fdde03",
        "owner()": "8da5cb5b",
        "rate()": "2c4e722e",
        "renounceOwnership()": "715018a6",
        "startTime()": "78e97925",
        "symbol()": "95d89b41",
        "totalSupply()": "18160ddd",
        "transfer(address,uint256)": "a9059cbb",
        "transferFrom(address,address,uint256)": "23b872dd",
        "transferOwnership(address)": "f2fde38b",
        "withdrawFunds()": "24600fc3",
        "withdrawUnsoldTokens()": "c8bdbfb6"
    },
    "gasEstimates": {
        "creation": {
            "codeDepositCost": "564400",
            "executionCost": "infinite",
            "totalCost": "infinite"
        },
        "external": {
            "allowance(address,address)": "infinite",
            "approve(address,uint256)": "24758",
            "balanceOf(address)": "2648",
            "buyTokens()": "infinite",
            "decimals()": "243",
            "endTime()": "2383",
            "name()": "infinite",
            "owner()": "2367",
            "rate()": "2339",
            "renounceOwnership()": "infinite",
            "startTime()": "2339",
            "symbol()": "infinite",
            "totalSupply()": "2348",
            "transfer(address,uint256)": "51238",
            "transferFrom(address,address,uint256)": "infinite",
            "transferOwnership(address)": "28443",
            "withdrawFunds()": "infinite",
            "withdrawUnsoldTokens()": "57350"
        }
    }
}